{
  "address": "0x8C261C87288dd5E2dc462FA0fD4C6399a7F102eF",
  "abi": [
    {
      "inputs": [],
      "name": "DESCRIPTION",
      "outputs": [
        {
          "internalType": "string",
          "name": "",
          "type": "string"
        }
      ],
      "stateMutability": "view",
      "type": "function"
    },
    {
      "inputs": [
        {
          "internalType": "address",
          "name": "instance",
          "type": "address"
        },
        {
          "internalType": "address",
          "name": "user",
          "type": "address"
        },
        {
          "internalType": "bytes32",
          "name": "",
          "type": "bytes32"
        }
      ],
      "name": "getPowah",
      "outputs": [
        {
          "internalType": "uint256",
          "name": "bnIchi",
          "type": "uint256"
        }
      ],
      "stateMutability": "view",
      "type": "function"
    },
    {
      "inputs": [
        {
          "internalType": "address",
          "name": "instance",
          "type": "address"
        }
      ],
      "name": "getSupply",
      "outputs": [
        {
          "internalType": "uint256",
          "name": "bnIchi",
          "type": "uint256"
        }
      ],
      "stateMutability": "view",
      "type": "function"
    }
  ],
  "transactionHash": "0x8bb7ab46cac01aed1f36e9651bbca61bd9da7ac35ca09b230017a2cd1c96d93c",
  "args": [],
  "solcInputHash": "9ffbb8879bbb381f932bc9e4266c5c3b",
  "bytecode": "0x60e0604052602f60808181529061049060a039805161002691600091602090910190610039565b5034801561003357600080fd5b5061010d565b828054610045906100d2565b90600052602060002090601f01602090048101928261006757600085556100ad565b82601f1061008057805160ff19168380011785556100ad565b828001600101855582156100ad579182015b828111156100ad578251825591602001919060010190610092565b506100b99291506100bd565b5090565b5b808211156100b957600081556001016100be565b600181811c908216806100e657607f821691505b6020821081141561010757634e487b7160e01b600052602260045260246000fd5b50919050565b6103748061011c6000396000f3fe608060405234801561001057600080fd5b50600436106100415760003560e01c80631fd433aa14610046578063f1ae88561461006c578063ff80957714610081575b600080fd5b610059610054366004610243565b610094565b6040519081526020015b60405180910390f35b610074610112565b60405161006391906102b0565b61005961008f36600461025d565b6101a0565b600080829050806001600160a01b03166318160ddd6040518163ffffffff1660e01b815260040160206040518083038186803b1580156100d357600080fd5b505afa1580156100e7573d6000803e3d6000fd5b505050506040513d601f19601f8201168201806040525081019061010b9190610298565b9392505050565b6000805461011f90610303565b80601f016020809104026020016040519081016040528092919081815260200182805461014b90610303565b80156101985780601f1061016d57610100808354040283529160200191610198565b820191906000526020600020905b81548152906001019060200180831161017b57829003601f168201915b505050505081565b6040516370a0823160e01b81526001600160a01b03838116600483015260009185918216906370a082319060240160206040518083038186803b1580156101e657600080fd5b505afa1580156101fa573d6000803e3d6000fd5b505050506040513d601f19601f8201168201806040525081019061021e9190610298565b95945050505050565b80356001600160a01b038116811461023e57600080fd5b919050565b600060208284031215610254578081fd5b61010b82610227565b600080600060608486031215610271578182fd5b61027a84610227565b925061028860208501610227565b9150604084013590509250925092565b6000602082840312156102a9578081fd5b5051919050565b6000602080835283518082850152825b818110156102dc578581018301518582016040015282016102c0565b818111156102ed5783604083870101525b50601f01601f1916929092016040019392505050565b600181811c9082168061031757607f821691505b6020821081141561033857634e487b7160e01b600052602260045260246000fd5b5091905056fea26469706673582212208053354003760ced67188e8a6cf969f946db549fd7f716f231146afa3edec4e764736f6c6343000803003349434849506f77616820496e74657270657274657220666f722042616e636f72205633204943484920746f6b656e73",
  "devdoc": {
    "kind": "dev",
    "methods": {},
    "version": 1
  },
  "userdoc": {
    "kind": "user",
    "methods": {},
    "version": 1
  },
  "storageLayout": {
    "storage": [
      {
        "astId": 1024,
        "contract": "contracts/interperters/bnICHIPowah.sol:bnICHIPowah",
        "label": "DESCRIPTION",
        "offset": 0,
        "slot": "0",
        "type": "t_string_storage"
      }
    ],
    "types": {
      "t_string_storage": {
        "encoding": "bytes",
        "label": "string",
        "numberOfBytes": "32"
      }
    }
  }
}