{
  "address": "0xa1d90A83ee1920E47acBF5be08AA753284B1e575",
  "abi": [
    {
      "anonymous": false,
      "inputs": [
        {
          "indexed": false,
          "internalType": "address",
          "name": "instance",
          "type": "address"
        }
      ],
      "name": "DeleteConstituency",
      "type": "event"
    },
    {
      "anonymous": false,
      "inputs": [
        {
          "indexed": false,
          "internalType": "address",
          "name": "instance",
          "type": "address"
        },
        {
          "indexed": false,
          "internalType": "address",
          "name": "interpreter",
          "type": "address"
        },
        {
          "indexed": false,
          "internalType": "uint16",
          "name": "weight",
          "type": "uint16"
        }
      ],
      "name": "NewConstituency",
      "type": "event"
    },
    {
      "anonymous": false,
      "inputs": [
        {
          "indexed": true,
          "internalType": "address",
          "name": "previousOwner",
          "type": "address"
        },
        {
          "indexed": true,
          "internalType": "address",
          "name": "newOwner",
          "type": "address"
        }
      ],
      "name": "OwnershipTransferred",
      "type": "event"
    },
    {
      "anonymous": false,
      "inputs": [
        {
          "indexed": false,
          "internalType": "address",
          "name": "instance",
          "type": "address"
        },
        {
          "indexed": false,
          "internalType": "address",
          "name": "interpreter",
          "type": "address"
        },
        {
          "indexed": false,
          "internalType": "uint16",
          "name": "weight",
          "type": "uint16"
        }
      ],
      "name": "UpdateConstituency",
      "type": "event"
    },
    {
      "inputs": [],
      "name": "PRECISION",
      "outputs": [
        {
          "internalType": "uint256",
          "name": "",
          "type": "uint256"
        }
      ],
      "stateMutability": "view",
      "type": "function"
    },
    {
      "inputs": [
        {
          "internalType": "address",
          "name": "user",
          "type": "address"
        }
      ],
      "name": "balanceOf",
      "outputs": [
        {
          "internalType": "uint256",
          "name": "powah",
          "type": "uint256"
        }
      ],
      "stateMutability": "view",
      "type": "function"
    },
    {
      "inputs": [
        {
          "internalType": "address",
          "name": "",
          "type": "address"
        }
      ],
      "name": "constituencies",
      "outputs": [
        {
          "internalType": "address",
          "name": "interpreter",
          "type": "address"
        },
        {
          "internalType": "uint16",
          "name": "weight",
          "type": "uint16"
        }
      ],
      "stateMutability": "view",
      "type": "function"
    },
    {
      "inputs": [
        {
          "internalType": "uint256",
          "name": "index",
          "type": "uint256"
        }
      ],
      "name": "constituencyAtIndex",
      "outputs": [
        {
          "internalType": "address",
          "name": "constituency",
          "type": "address"
        }
      ],
      "stateMutability": "view",
      "type": "function"
    },
    {
      "inputs": [],
      "name": "constituencyCount",
      "outputs": [
        {
          "internalType": "uint256",
          "name": "count",
          "type": "uint256"
        }
      ],
      "stateMutability": "view",
      "type": "function"
    },
    {
      "inputs": [
        {
          "internalType": "address",
          "name": "constituency",
          "type": "address"
        }
      ],
      "name": "deleteConstituency",
      "outputs": [],
      "stateMutability": "nonpayable",
      "type": "function"
    },
    {
      "inputs": [
        {
          "internalType": "address",
          "name": "constituency",
          "type": "address"
        },
        {
          "internalType": "address",
          "name": "interpreter",
          "type": "address"
        },
        {
          "internalType": "uint16",
          "name": "weight",
          "type": "uint16"
        }
      ],
      "name": "insertConstituency",
      "outputs": [],
      "stateMutability": "nonpayable",
      "type": "function"
    },
    {
      "inputs": [],
      "name": "owner",
      "outputs": [
        {
          "internalType": "address",
          "name": "",
          "type": "address"
        }
      ],
      "stateMutability": "view",
      "type": "function"
    },
    {
      "inputs": [],
      "name": "renounceOwnership",
      "outputs": [],
      "stateMutability": "nonpayable",
      "type": "function"
    },
    {
      "inputs": [],
      "name": "totalSupply",
      "outputs": [
        {
          "internalType": "uint256",
          "name": "supply",
          "type": "uint256"
        }
      ],
      "stateMutability": "view",
      "type": "function"
    },
    {
      "inputs": [
        {
          "internalType": "address",
          "name": "newOwner",
          "type": "address"
        }
      ],
      "name": "transferOwnership",
      "outputs": [],
      "stateMutability": "nonpayable",
      "type": "function"
    },
    {
      "inputs": [
        {
          "internalType": "address",
          "name": "constituency",
          "type": "address"
        },
        {
          "internalType": "address",
          "name": "interpreter",
          "type": "address"
        },
        {
          "internalType": "uint16",
          "name": "weight",
          "type": "uint16"
        }
      ],
      "name": "updateConstituency",
      "outputs": [],
      "stateMutability": "nonpayable",
      "type": "function"
    }
  ],
  "transactionHash": "0xee30d80039ad71c5f28c5d6f718fb9062c1d983d06b3e1ad7ccf1ffe50c1783d",
  "args": [],
  "solcInputHash": "3445a493da365c84996728acedccd0db",
  "bytecode": "0x608060405234801561001057600080fd5b50600080546001600160a01b031916339081178255604051909182917f8be0079c531659141344cd1fd0a4f28419497f9722a3daafe3b4186f6b6457e0908290a350610caa806100616000396000f3fe608060405234801561001057600080fd5b50600436106100b45760003560e01c80638da5cb5b116100715780638da5cb5b146101645780639b9dd55214610189578063aaf5eb681461019c578063d41f6cb4146101a4578063f2fde38b146101b7578063f541e76c146101ca576100b4565b806318160ddd146100b95780634b6ff1ed146100d4578063502e4281146100e95780636c33f1a81461014157806370a0823114610149578063715018a61461015c575b600080fd5b6100c16101dd565b6040519081526020015b60405180910390f35b6100e76100e2366004610a89565b6102df565b005b61011f6100f7366004610a89565b6001602052600090815260409020546001600160a01b03811690600160a01b900461ffff1682565b604080516001600160a01b03909316835261ffff9091166020830152016100cb565b6100c16103b1565b6100c1610157366004610a89565b6103c2565b6100e761046f565b6000546001600160a01b03165b6040516001600160a01b0390911681526020016100cb565b6100e7610197366004610aa3565b6104e3565b6100c1606481565b6101716101b2366004610aef565b6105ba565b6100e76101c5366004610a89565b6105cd565b6100e76101d8366004610aa3565b6106b7565b6000806101ea60026107b5565b905060005b818110156102da5760006102046002836107c0565b6001600160a01b038181166000818152600160205260409081902080549151630fea19d560e11b815260048101939093529394506102c3926102bc926064926102b692600160a01b820461ffff1692911690631fd433aa906024015b60206040518083038186803b15801561027857600080fd5b505afa15801561028c573d6000803e3d6000fd5b505050506040513d601f19601f820116820180604052508101906102b09190610b07565b90610801565b90610814565b8690610820565b9450505080806102d290610c15565b9150506101ef565b505090565b6000546001600160a01b031633146103125760405162461bcd60e51b815260040161030990610b72565b60405180910390fd5b60408051808201909152601b81527f49434849506f7761683a20756e6b6e6f776e20696e7374616e63650000000000602082015261035490600290839061082c565b6001600160a01b03811660008181526001602090815260409182902080546001600160b01b031916905590519182527fc69ac9b6424516080db179165851cd903938ab9a16073c7b9219080d88f76143910160405180910390a150565b60006103bd60026107b5565b905090565b6000806103cf60026107b5565b905060005b818110156104685760006103e96002836107c0565b6001600160a01b03818116600081815260016020526040908190208054915163719d5df760e01b815260048101939093528984166024840152939450610451926102bc926064926102b692600160a01b820461ffff169291169063719d5df790604401610260565b94505050808061046090610c15565b9150506103d4565b5050919050565b6000546001600160a01b031633146104995760405162461bcd60e51b815260040161030990610b72565b600080546040516001600160a01b03909116907f8be0079c531659141344cd1fd0a4f28419497f9722a3daafe3b4186f6b6457e0908390a3600080546001600160a01b0319169055565b6000546001600160a01b0316331461050d5760405162461bcd60e51b815260040161030990610b72565b610533836040518060600160405280602e8152602001610c47602e91396002919061097f565b6001600160a01b0383811660008181526001602090815260409182902080549487166001600160b01b03199095168517600160a01b61ffff8816908102919091178255835194855291840194909452908201527fcf3089f67142af1b27bd83e5fb5724635193de409a247d6f13fc11e2ec02ab76906060015b60405180910390a150505050565b60006105c76002836107c0565b92915050565b6000546001600160a01b031633146105f75760405162461bcd60e51b815260040161030990610b72565b6001600160a01b03811661065c5760405162461bcd60e51b815260206004820152602660248201527f4f776e61626c653a206e6577206f776e657220697320746865207a65726f206160448201526564647265737360d01b6064820152608401610309565b600080546040516001600160a01b03808516939216917f8be0079c531659141344cd1fd0a4f28419497f9722a3daafe3b4186f6b6457e091a3600080546001600160a01b0319166001600160a01b0392909216919091179055565b6000546001600160a01b031633146106e15760405162461bcd60e51b815260040161030990610b72565b6106ec600284610a03565b6107385760405162461bcd60e51b815260206004820152601e60248201527f49434849506f77616820756e6b6e6f776e20636f6e7374697475656e637900006044820152606401610309565b6001600160a01b0383811660008181526001602090815260409182902080549487166001600160b01b03199095168517600160a01b61ffff8816908102919091178255835194855291840194909452908201527f1eae9b6f873994548098a2304584bfd5fd922de245bf9e164d197fcdb2b379a9906060016105ac565b60018101545b919050565b60008260010182815481106107e557634e487b7160e01b600052603260045260246000fd5b6000918252602090912001546001600160a01b03169392505050565b600061080d8284610bdf565b9392505050565b600061080d8284610bbf565b600061080d8284610ba7565b6108368383610a03565b81906108555760405162461bcd60e51b81526004016103099190610b1f565b5060006001610863856107b5565b61086d9190610bfe565b6001600160a01b0384166000908152602086905260408120546001870180549394509092849081106108af57634e487b7160e01b600052603260045260246000fd5b60009182526020808320909101546001600160a01b03168083529088905260409091208390556001870180549192508291849081106108fe57634e487b7160e01b600052603260045260246000fd5b600091825260208083209190910180546001600160a01b0319166001600160a01b0394851617905591871681529087905260408120556001860180548061095557634e487b7160e01b600052603160045260246000fd5b600082815260209020810160001990810180546001600160a01b0319169055019055505050505050565b6109898383610a03565b1581906109a95760405162461bcd60e51b81526004016103099190610b1f565b506001838101805480830182556000828152602090200180546001600160a01b0319166001600160a01b038616179055546109e49190610bfe565b6001600160a01b03909216600090815260209390935250604090912055565b6001820154600090610a17575060006105c7565b6001600160a01b0382166000818152602085905260409020546001850180549091908110610a5557634e487b7160e01b600052603260045260246000fd5b6000918252602090912001546001600160a01b0316149392505050565b80356001600160a01b03811681146107bb57600080fd5b600060208284031215610a9a578081fd5b61080d82610a72565b600080600060608486031215610ab7578182fd5b610ac084610a72565b9250610ace60208501610a72565b9150604084013561ffff81168114610ae4578182fd5b809150509250925092565b600060208284031215610b00578081fd5b5035919050565b600060208284031215610b18578081fd5b5051919050565b6000602080835283518082850152825b81811015610b4b57858101830151858201604001528201610b2f565b81811115610b5c5783604083870101525b50601f01601f1916929092016040019392505050565b6020808252818101527f4f776e61626c653a2063616c6c6572206973206e6f7420746865206f776e6572604082015260600190565b60008219821115610bba57610bba610c30565b500190565b600082610bda57634e487b7160e01b81526012600452602481fd5b500490565b6000816000190483118215151615610bf957610bf9610c30565b500290565b600082821015610c1057610c10610c30565b500390565b6000600019821415610c2957610c29610c30565b5060010190565b634e487b7160e01b600052601160045260246000fdfe49434849506f7761683a20636f6e7374697475656e637920697320616c726561647920726567697374657265642ea26469706673582212209e023a204a93e376d5e26a0700b43897f3cfedc5f4a6eb4bda2afa1519b941e664736f6c63430008030033",
  "devdoc": {
    "kind": "dev",
    "methods": {
      "balanceOf(address)": {
        "params": {
          "powah": "user's voting power",
          "user": "the user to inspect"
        }
      },
      "constituencyAtIndex(uint256)": {
        "params": {
          "constituency": "address of the contract where tokens are staked",
          "index": "row number to inspect"
        }
      },
      "constituencyCount()": {
        "params": {
          "count": "number of constituencies configured"
        }
      },
      "deleteConstituency(address)": {
        "params": {
          "constituency": "address of the contract to stop inspecting"
        }
      },
      "insertConstituency(address,address,uint16)": {
        "params": {
          "constituency": "address of the contract to inspect",
          "interpreter": "address of the satellite that can interact with the type of contract at constituency address ",
          "weight": "scaling adjustment to increase/decrease voting power. 100 = 100% is correct in most cases"
        }
      },
      "owner()": {
        "details": "Returns the address of the current owner."
      },
      "renounceOwnership()": {
        "details": "Leaves the contract without owner. It will not be possible to call `onlyOwner` functions anymore. Can only be called by the current owner. NOTE: Renouncing ownership will leave the contract without an owner, thereby removing any functionality that is only available to the owner."
      },
      "totalSupply()": {
        "params": {
          "supply": "the total number of votes possible given circulating supply and weighting"
        }
      },
      "transferOwnership(address)": {
        "details": "Transfers ownership of the contract to a new account (`newOwner`). Can only be called by the current owner."
      },
      "updateConstituency(address,address,uint16)": {
        "params": {
          "constituency": "address of the contract to inspect",
          "interpreter": "address of the satellite that can interact with the type of contract at constituency address ",
          "weight": "scaling adjustment to increase/decrease voting power. 100 = 100% is correct in most cases"
        }
      }
    },
    "version": 1
  },
  "userdoc": {
    "kind": "user",
    "methods": {
      "balanceOf(address)": {
        "notice": "user voting power reported through a normal ERC20 function "
      },
      "constituencyAtIndex(uint256)": {
        "notice": "enumerate the configured constituencies"
      },
      "constituencyCount()": {
        "notice": "count configured constituencies"
      },
      "deleteConstituency(address)": {
        "notice": "delete a constituency to stop counting as voting power"
      },
      "insertConstituency(address,address,uint16)": {
        "notice": "insert a new constituency to start counting as voting power"
      },
      "totalSupply()": {
        "notice": "adjusted total supply factor (for computing quorum) is the weight-adjusted sum of all possible votes"
      },
      "updateConstituency(address,address,uint16)": {
        "notice": "update a constituency by overwriting all values (safe to remove and use 2-step delete, re-add)"
      }
    },
    "version": 1
  },
  "storageLayout": {
    "storage": [
      {
        "astId": 7,
        "contract": "contracts/ichiPowah.sol:ICHIPowah",
        "label": "_owner",
        "offset": 0,
        "slot": "0",
        "type": "t_address"
      },
      {
        "astId": 927,
        "contract": "contracts/ichiPowah.sol:ICHIPowah",
        "label": "constituencies",
        "offset": 0,
        "slot": "1",
        "type": "t_mapping(t_address,t_struct(Constituency)922_storage)"
      },
      {
        "astId": 930,
        "contract": "contracts/ichiPowah.sol:ICHIPowah",
        "label": "constituencySet",
        "offset": 0,
        "slot": "2",
        "type": "t_struct(Set)1547_storage"
      }
    ],
    "types": {
      "t_address": {
        "encoding": "inplace",
        "label": "address",
        "numberOfBytes": "20"
      },
      "t_array(t_address)dyn_storage": {
        "base": "t_address",
        "encoding": "dynamic_array",
        "label": "address[]",
        "numberOfBytes": "32"
      },
      "t_mapping(t_address,t_struct(Constituency)922_storage)": {
        "encoding": "mapping",
        "key": "t_address",
        "label": "mapping(address => struct ICHIPowah.Constituency)",
        "numberOfBytes": "32",
        "value": "t_struct(Constituency)922_storage"
      },
      "t_mapping(t_address,t_uint256)": {
        "encoding": "mapping",
        "key": "t_address",
        "label": "mapping(address => uint256)",
        "numberOfBytes": "32",
        "value": "t_uint256"
      },
      "t_struct(Constituency)922_storage": {
        "encoding": "inplace",
        "label": "struct ICHIPowah.Constituency",
        "members": [
          {
            "astId": 919,
            "contract": "contracts/ichiPowah.sol:ICHIPowah",
            "label": "interpreter",
            "offset": 0,
            "slot": "0",
            "type": "t_address"
          },
          {
            "astId": 921,
            "contract": "contracts/ichiPowah.sol:ICHIPowah",
            "label": "weight",
            "offset": 20,
            "slot": "0",
            "type": "t_uint16"
          }
        ],
        "numberOfBytes": "32"
      },
      "t_struct(Set)1547_storage": {
        "encoding": "inplace",
        "label": "struct AddressSet.Set",
        "members": [
          {
            "astId": 1543,
            "contract": "contracts/ichiPowah.sol:ICHIPowah",
            "label": "keyPointers",
            "offset": 0,
            "slot": "0",
            "type": "t_mapping(t_address,t_uint256)"
          },
          {
            "astId": 1546,
            "contract": "contracts/ichiPowah.sol:ICHIPowah",
            "label": "keyList",
            "offset": 0,
            "slot": "1",
            "type": "t_array(t_address)dyn_storage"
          }
        ],
        "numberOfBytes": "64"
      },
      "t_uint16": {
        "encoding": "inplace",
        "label": "uint16",
        "numberOfBytes": "2"
      },
      "t_uint256": {
        "encoding": "inplace",
        "label": "uint256",
        "numberOfBytes": "32"
      }
    }
  }
}