{
  "address": "0x873902a3c0731EcC1F2075435FE035ACCeEd5459",
  "abi": [
    {
      "anonymous": false,
      "inputs": [
        {
          "indexed": false,
          "internalType": "address",
          "name": "instance",
          "type": "address"
        }
      ],
      "name": "DeleteConstituency",
      "type": "event"
    },
    {
      "anonymous": false,
      "inputs": [
        {
          "indexed": false,
          "internalType": "address",
          "name": "instance",
          "type": "address"
        },
        {
          "indexed": false,
          "internalType": "address",
          "name": "interpreter",
          "type": "address"
        },
        {
          "indexed": false,
          "internalType": "uint16",
          "name": "weight",
          "type": "uint16"
        },
        {
          "indexed": false,
          "internalType": "bytes32",
          "name": "params",
          "type": "bytes32"
        }
      ],
      "name": "NewConstituency",
      "type": "event"
    },
    {
      "anonymous": false,
      "inputs": [
        {
          "indexed": true,
          "internalType": "address",
          "name": "previousOwner",
          "type": "address"
        },
        {
          "indexed": true,
          "internalType": "address",
          "name": "newOwner",
          "type": "address"
        }
      ],
      "name": "OwnershipTransferred",
      "type": "event"
    },
    {
      "anonymous": false,
      "inputs": [
        {
          "indexed": false,
          "internalType": "address",
          "name": "instance",
          "type": "address"
        },
        {
          "indexed": false,
          "internalType": "address",
          "name": "interpreter",
          "type": "address"
        },
        {
          "indexed": false,
          "internalType": "uint16",
          "name": "weight",
          "type": "uint16"
        },
        {
          "indexed": false,
          "internalType": "bytes32",
          "name": "params",
          "type": "bytes32"
        }
      ],
      "name": "UpdateConstituency",
      "type": "event"
    },
    {
      "inputs": [],
      "name": "PRECISION",
      "outputs": [
        {
          "internalType": "uint256",
          "name": "",
          "type": "uint256"
        }
      ],
      "stateMutability": "view",
      "type": "function"
    },
    {
      "inputs": [
        {
          "internalType": "address",
          "name": "user",
          "type": "address"
        }
      ],
      "name": "balanceOf",
      "outputs": [
        {
          "internalType": "uint256",
          "name": "powah",
          "type": "uint256"
        }
      ],
      "stateMutability": "view",
      "type": "function"
    },
    {
      "inputs": [
        {
          "internalType": "address",
          "name": "",
          "type": "address"
        }
      ],
      "name": "constituencies",
      "outputs": [
        {
          "internalType": "address",
          "name": "interpreter",
          "type": "address"
        },
        {
          "internalType": "uint16",
          "name": "weight",
          "type": "uint16"
        },
        {
          "internalType": "bytes32",
          "name": "params",
          "type": "bytes32"
        }
      ],
      "stateMutability": "view",
      "type": "function"
    },
    {
      "inputs": [
        {
          "internalType": "uint256",
          "name": "index",
          "type": "uint256"
        }
      ],
      "name": "constituencyAtIndex",
      "outputs": [
        {
          "internalType": "address",
          "name": "constituency",
          "type": "address"
        }
      ],
      "stateMutability": "view",
      "type": "function"
    },
    {
      "inputs": [],
      "name": "constituencyCount",
      "outputs": [
        {
          "internalType": "uint256",
          "name": "count",
          "type": "uint256"
        }
      ],
      "stateMutability": "view",
      "type": "function"
    },
    {
      "inputs": [
        {
          "internalType": "address",
          "name": "constituency",
          "type": "address"
        }
      ],
      "name": "deleteConstituency",
      "outputs": [],
      "stateMutability": "nonpayable",
      "type": "function"
    },
    {
      "inputs": [
        {
          "internalType": "address",
          "name": "constituency",
          "type": "address"
        },
        {
          "internalType": "address",
          "name": "interpreter",
          "type": "address"
        },
        {
          "internalType": "uint16",
          "name": "weight",
          "type": "uint16"
        },
        {
          "internalType": "bytes32",
          "name": "params",
          "type": "bytes32"
        }
      ],
      "name": "insertConstituency",
      "outputs": [],
      "stateMutability": "nonpayable",
      "type": "function"
    },
    {
      "inputs": [],
      "name": "owner",
      "outputs": [
        {
          "internalType": "address",
          "name": "",
          "type": "address"
        }
      ],
      "stateMutability": "view",
      "type": "function"
    },
    {
      "inputs": [],
      "name": "renounceOwnership",
      "outputs": [],
      "stateMutability": "nonpayable",
      "type": "function"
    },
    {
      "inputs": [],
      "name": "totalSupply",
      "outputs": [
        {
          "internalType": "uint256",
          "name": "supply",
          "type": "uint256"
        }
      ],
      "stateMutability": "view",
      "type": "function"
    },
    {
      "inputs": [
        {
          "internalType": "address",
          "name": "newOwner",
          "type": "address"
        }
      ],
      "name": "transferOwnership",
      "outputs": [],
      "stateMutability": "nonpayable",
      "type": "function"
    },
    {
      "inputs": [
        {
          "internalType": "address",
          "name": "constituency",
          "type": "address"
        },
        {
          "internalType": "address",
          "name": "interpreter",
          "type": "address"
        },
        {
          "internalType": "uint16",
          "name": "weight",
          "type": "uint16"
        },
        {
          "internalType": "bytes32",
          "name": "params",
          "type": "bytes32"
        }
      ],
      "name": "updateConstituency",
      "outputs": [],
      "stateMutability": "nonpayable",
      "type": "function"
    }
  ],
  "transactionHash": "0x4ee927cd8fb20a64ac80a5924d993263a9addbdcce67f31295d96ccd5640fa2f",
  "args": [],
  "solcInputHash": "86c45c6cc791b56aea7f70a0a842f431",
  "bytecode": "0x608060405234801561001057600080fd5b50600080546001600160a01b031916339081178255604051909182917f8be0079c531659141344cd1fd0a4f28419497f9722a3daafe3b4186f6b6457e0908290a350610cef806100616000396000f3fe608060405234801561001057600080fd5b50600436106100b45760003560e01c806370a082311161007157806370a082311461017d578063715018a6146101905780638da5cb5b14610198578063aaf5eb68146101bd578063d41f6cb4146101c5578063f2fde38b146101d8576100b4565b806318160ddd146100b95780634b6ff1ed146100d45780634c22575e146100e9578063502e4281146100fc5780635a5dd586146101625780636c33f1a814610175575b600080fd5b6100c16101eb565b6040519081526020015b60405180910390f35b6100e76100e2366004610ac8565b6102ed565b005b6100e76100f7366004610ae2565b6103c4565b61013a61010a366004610ac8565b600160208190526000918252604090912080549101546001600160a01b03821691600160a01b900461ffff169083565b604080516001600160a01b03909416845261ffff9092166020840152908201526060016100cb565b6100e7610170366004610ae2565b6104da565b6100c16105b4565b6100c161018b366004610ac8565b6105c5565b6100e7610683565b6000546001600160a01b03165b6040516001600160a01b0390911681526020016100cb565b6100c1606481565b6101a56101d3366004610b34565b6106f7565b6100e76101e6366004610ac8565b61070a565b6000806101f860026107f4565b905060005b818110156102e85760006102126002836107ff565b6001600160a01b038181166000818152600160205260409081902080549151630fea19d560e11b815260048101939093529394506102d1926102ca926064926102c492600160a01b820461ffff1692911690631fd433aa906024015b60206040518083038186803b15801561028657600080fd5b505afa15801561029a573d6000803e3d6000fd5b505050506040513d601f19601f820116820180604052508101906102be9190610b4c565b90610840565b90610853565b869061085f565b9450505080806102e090610c5a565b9150506101fd565b505090565b6000546001600160a01b031633146103205760405162461bcd60e51b815260040161031790610bb7565b60405180910390fd5b60408051808201909152601b81527f49434849506f7761683a20756e6b6e6f776e20696e7374616e63650000000000602082015261036290600290839061086b565b6001600160a01b038116600081815260016020818152604080842080546001600160b01b031916815590920192909255519182527fc69ac9b6424516080db179165851cd903938ab9a16073c7b9219080d88f76143910160405180910390a150565b6000546001600160a01b031633146103ee5760405162461bcd60e51b815260040161031790610bb7565b6103f96002856109be565b6104455760405162461bcd60e51b815260206004820152601e60248201527f49434849506f77616820756e6b6e6f776e20636f6e7374697475656e637900006044820152606401610317565b6001600160a01b0384811660008181526001602081815260409283902080549589166001600160b01b03199096168617600160a01b61ffff8a1690810291909117825592810187905583519485529084019490945290820152606081018390527fc7ff5c675396d4cab4f1c9fea86f1fb2df9289eb0de8fb58a0b2e77829386b33906080015b60405180910390a15050505050565b6000546001600160a01b031633146105045760405162461bcd60e51b815260040161031790610bb7565b61052a846040518060600160405280602e8152602001610c8c602e913960029190610a2d565b6001600160a01b0384811660008181526001602081815260409283902080549589166001600160b01b03199096168617600160a01b61ffff8a1690810291909117825592810187905583519485529084019490945290820152606081018390527ffdc209fb1ec51583a1f2fa2b5d7f3d6055b7e50d0849341b6e7ad04828132e87906080016104cb565b60006105c060026107f4565b905090565b6000806105d260026107f4565b905060005b8181101561067c5760006105ec6002836107ff565b6001600160a01b0380821660008181526001602081905260409182902080549181015492516001627f6a8960e01b0319815260048101949094528a85166024850152604484019290925293945092610665926102ca926064926102c49261ffff600160a01b8304169291169063ff80957790850161026e565b94505050808061067490610c5a565b9150506105d7565b5050919050565b6000546001600160a01b031633146106ad5760405162461bcd60e51b815260040161031790610bb7565b600080546040516001600160a01b03909116907f8be0079c531659141344cd1fd0a4f28419497f9722a3daafe3b4186f6b6457e0908390a3600080546001600160a01b0319169055565b60006107046002836107ff565b92915050565b6000546001600160a01b031633146107345760405162461bcd60e51b815260040161031790610bb7565b6001600160a01b0381166107995760405162461bcd60e51b815260206004820152602660248201527f4f776e61626c653a206e6577206f776e657220697320746865207a65726f206160448201526564647265737360d01b6064820152608401610317565b600080546040516001600160a01b03808516939216917f8be0079c531659141344cd1fd0a4f28419497f9722a3daafe3b4186f6b6457e091a3600080546001600160a01b0319166001600160a01b0392909216919091179055565b60018101545b919050565b600082600101828154811061082457634e487b7160e01b600052603260045260246000fd5b6000918252602090912001546001600160a01b03169392505050565b600061084c8284610c24565b9392505050565b600061084c8284610c04565b600061084c8284610bec565b61087583836109be565b81906108945760405162461bcd60e51b81526004016103179190610b64565b50600060016108a2856107f4565b6108ac9190610c43565b6001600160a01b0384166000908152602086905260408120546001870180549394509092849081106108ee57634e487b7160e01b600052603260045260246000fd5b60009182526020808320909101546001600160a01b031680835290889052604090912083905560018701805491925082918490811061093d57634e487b7160e01b600052603260045260246000fd5b600091825260208083209190910180546001600160a01b0319166001600160a01b0394851617905591871681529087905260408120556001860180548061099457634e487b7160e01b600052603160045260246000fd5b600082815260209020810160001990810180546001600160a01b0319169055019055505050505050565b60018201546000906109d257506000610704565b6001600160a01b0382166000818152602085905260409020546001850180549091908110610a1057634e487b7160e01b600052603260045260246000fd5b6000918252602090912001546001600160a01b0316149392505050565b610a3783836109be565b158190610a575760405162461bcd60e51b81526004016103179190610b64565b506001838101805480830182556000828152602090200180546001600160a01b0319166001600160a01b03861617905554610a929190610c43565b6001600160a01b03909216600090815260209390935250604090912055565b80356001600160a01b03811681146107fa57600080fd5b600060208284031215610ad9578081fd5b61084c82610ab1565b60008060008060808587031215610af7578283fd5b610b0085610ab1565b9350610b0e60208601610ab1565b9250604085013561ffff81168114610b24578283fd5b9396929550929360600135925050565b600060208284031215610b45578081fd5b5035919050565b600060208284031215610b5d578081fd5b5051919050565b6000602080835283518082850152825b81811015610b9057858101830151858201604001528201610b74565b81811115610ba15783604083870101525b50601f01601f1916929092016040019392505050565b6020808252818101527f4f776e61626c653a2063616c6c6572206973206e6f7420746865206f776e6572604082015260600190565b60008219821115610bff57610bff610c75565b500190565b600082610c1f57634e487b7160e01b81526012600452602481fd5b500490565b6000816000190483118215151615610c3e57610c3e610c75565b500290565b600082821015610c5557610c55610c75565b500390565b6000600019821415610c6e57610c6e610c75565b5060010190565b634e487b7160e01b600052601160045260246000fdfe49434849506f7761683a20636f6e7374697475656e637920697320616c726561647920726567697374657265642ea2646970667358221220abcd5a66caa12d59339454834157a54d007127ac2b6bce169d61d078bd3f9aa364736f6c63430008030033",
  "devdoc": {
    "kind": "dev",
    "methods": {
      "balanceOf(address)": {
        "params": {
          "powah": "user's voting power",
          "user": "the user to inspect"
        }
      },
      "constituencyAtIndex(uint256)": {
        "params": {
          "constituency": "address of the contract where tokens are staked",
          "index": "row number to inspect"
        }
      },
      "constituencyCount()": {
        "params": {
          "count": "number of constituencies configured"
        }
      },
      "deleteConstituency(address)": {
        "params": {
          "constituency": "address of the contract to stop inspecting"
        }
      },
      "insertConstituency(address,address,uint16,bytes32)": {
        "params": {
          "constituency": "address of the contract to inspect",
          "interpreter": "address of the satellite that can interact with the type of contract at constituency address ",
          "weight": "scaling adjustment to increase/decrease voting power. 100 = 100% is correct in most cases"
        }
      },
      "owner()": {
        "details": "Returns the address of the current owner."
      },
      "renounceOwnership()": {
        "details": "Leaves the contract without owner. It will not be possible to call `onlyOwner` functions anymore. Can only be called by the current owner. NOTE: Renouncing ownership will leave the contract without an owner, thereby removing any functionality that is only available to the owner."
      },
      "totalSupply()": {
        "params": {
          "supply": "the total number of votes possible given circulating supply and weighting"
        }
      },
      "transferOwnership(address)": {
        "details": "Transfers ownership of the contract to a new account (`newOwner`). Can only be called by the current owner."
      },
      "updateConstituency(address,address,uint16,bytes32)": {
        "params": {
          "constituency": "address of the contract to inspect",
          "interpreter": "address of the satellite that can interact with the type of contract at constituency address ",
          "weight": "scaling adjustment to increase/decrease voting power. 100 = 100% is correct in most cases"
        }
      }
    },
    "version": 1
  },
  "userdoc": {
    "kind": "user",
    "methods": {
      "balanceOf(address)": {
        "notice": "user voting power reported through a normal ERC20 function "
      },
      "constituencyAtIndex(uint256)": {
        "notice": "enumerate the configured constituencies"
      },
      "constituencyCount()": {
        "notice": "count configured constituencies"
      },
      "deleteConstituency(address)": {
        "notice": "delete a constituency to stop counting as voting power"
      },
      "insertConstituency(address,address,uint16,bytes32)": {
        "notice": "insert a new constituency to start counting as voting power"
      },
      "totalSupply()": {
        "notice": "adjusted total supply factor (for computing quorum) is the weight-adjusted sum of all possible votes"
      },
      "updateConstituency(address,address,uint16,bytes32)": {
        "notice": "update a constituency by overwriting all values (safe to remove and use 2-step delete, re-add)"
      }
    },
    "version": 1
  },
  "storageLayout": {
    "storage": [
      {
        "astId": 7,
        "contract": "contracts/ichiPowah.sol:ICHIPowah",
        "label": "_owner",
        "offset": 0,
        "slot": "0",
        "type": "t_address"
      },
      {
        "astId": 932,
        "contract": "contracts/ichiPowah.sol:ICHIPowah",
        "label": "constituencies",
        "offset": 0,
        "slot": "1",
        "type": "t_mapping(t_address,t_struct(Constituency)927_storage)"
      },
      {
        "astId": 935,
        "contract": "contracts/ichiPowah.sol:ICHIPowah",
        "label": "constituencySet",
        "offset": 0,
        "slot": "2",
        "type": "t_struct(Set)2209_storage"
      }
    ],
    "types": {
      "t_address": {
        "encoding": "inplace",
        "label": "address",
        "numberOfBytes": "20"
      },
      "t_array(t_address)dyn_storage": {
        "base": "t_address",
        "encoding": "dynamic_array",
        "label": "address[]",
        "numberOfBytes": "32"
      },
      "t_bytes32": {
        "encoding": "inplace",
        "label": "bytes32",
        "numberOfBytes": "32"
      },
      "t_mapping(t_address,t_struct(Constituency)927_storage)": {
        "encoding": "mapping",
        "key": "t_address",
        "label": "mapping(address => struct ICHIPowah.Constituency)",
        "numberOfBytes": "32",
        "value": "t_struct(Constituency)927_storage"
      },
      "t_mapping(t_address,t_uint256)": {
        "encoding": "mapping",
        "key": "t_address",
        "label": "mapping(address => uint256)",
        "numberOfBytes": "32",
        "value": "t_uint256"
      },
      "t_struct(Constituency)927_storage": {
        "encoding": "inplace",
        "label": "struct ICHIPowah.Constituency",
        "members": [
          {
            "astId": 922,
            "contract": "contracts/ichiPowah.sol:ICHIPowah",
            "label": "interpreter",
            "offset": 0,
            "slot": "0",
            "type": "t_address"
          },
          {
            "astId": 924,
            "contract": "contracts/ichiPowah.sol:ICHIPowah",
            "label": "weight",
            "offset": 20,
            "slot": "0",
            "type": "t_uint16"
          },
          {
            "astId": 926,
            "contract": "contracts/ichiPowah.sol:ICHIPowah",
            "label": "params",
            "offset": 0,
            "slot": "1",
            "type": "t_bytes32"
          }
        ],
        "numberOfBytes": "64"
      },
      "t_struct(Set)2209_storage": {
        "encoding": "inplace",
        "label": "struct AddressSet.Set",
        "members": [
          {
            "astId": 2205,
            "contract": "contracts/ichiPowah.sol:ICHIPowah",
            "label": "keyPointers",
            "offset": 0,
            "slot": "0",
            "type": "t_mapping(t_address,t_uint256)"
          },
          {
            "astId": 2208,
            "contract": "contracts/ichiPowah.sol:ICHIPowah",
            "label": "keyList",
            "offset": 0,
            "slot": "1",
            "type": "t_array(t_address)dyn_storage"
          }
        ],
        "numberOfBytes": "64"
      },
      "t_uint16": {
        "encoding": "inplace",
        "label": "uint16",
        "numberOfBytes": "2"
      },
      "t_uint256": {
        "encoding": "inplace",
        "label": "uint256",
        "numberOfBytes": "32"
      }
    }
  }
}