{
  "address": "0x7c49Fc7110eF49d080f1D0cFc57fad5F21515014",
  "abi": [
    {
      "inputs": [],
      "name": "DESCRIPTION",
      "outputs": [
        {
          "internalType": "string",
          "name": "",
          "type": "string"
        }
      ],
      "stateMutability": "view",
      "type": "function"
    },
    {
      "inputs": [],
      "name": "ICHIFarmAddress",
      "outputs": [
        {
          "internalType": "address",
          "name": "",
          "type": "address"
        }
      ],
      "stateMutability": "view",
      "type": "function"
    },
    {
      "inputs": [],
      "name": "ICHIaddress",
      "outputs": [
        {
          "internalType": "address",
          "name": "",
          "type": "address"
        }
      ],
      "stateMutability": "view",
      "type": "function"
    },
    {
      "inputs": [],
      "name": "SUSHIFarmPoolID",
      "outputs": [
        {
          "internalType": "uint256",
          "name": "",
          "type": "uint256"
        }
      ],
      "stateMutability": "view",
      "type": "function"
    },
    {
      "inputs": [
        {
          "internalType": "address",
          "name": "instance",
          "type": "address"
        },
        {
          "internalType": "address",
          "name": "user",
          "type": "address"
        },
        {
          "internalType": "bytes32",
          "name": "params",
          "type": "bytes32"
        }
      ],
      "name": "getPowah",
      "outputs": [
        {
          "internalType": "uint256",
          "name": "ichi",
          "type": "uint256"
        }
      ],
      "stateMutability": "view",
      "type": "function"
    },
    {
      "inputs": [
        {
          "internalType": "address",
          "name": "instance",
          "type": "address"
        }
      ],
      "name": "getSupply",
      "outputs": [
        {
          "internalType": "uint256",
          "name": "ichi",
          "type": "uint256"
        }
      ],
      "stateMutability": "view",
      "type": "function"
    }
  ],
  "transactionHash": "0xa913151a8e9c1d3f6b3e12ddc7ec858931e49eb825f5e4fc413fe5a2d9ea0d38",
  "args": [],
  "solcInputHash": "86c45c6cc791b56aea7f70a0a842f431",
  "bytecode": "0x60e0604052603560808181529061084960a039805161002691600091602090910190610086565b50600180546001600160a01b031990811673903bef1736cddf2a537176cf3c64579c3867a881179091556002805490911673275dfe03bc036257cd0a713ee819dbd4529739c8179055604f60035534801561008057600080fd5b5061015a565b8280546100929061011f565b90600052602060002090601f0160209004810192826100b457600085556100fa565b82601f106100cd57805160ff19168380011785556100fa565b828001600101855582156100fa579182015b828111156100fa5782518255916020019190600101906100df565b5061010692915061010a565b5090565b5b80821115610106576000815560010161010b565b600181811c9082168061013357607f821691505b6020821081141561015457634e487b7160e01b600052602260045260246000fd5b50919050565b6106e0806101696000396000f3fe608060405234801561001057600080fd5b50600436106100625760003560e01c80631fd433aa14610067578063324c69471461008d5780639e387e80146100b8578063e67140a7146100cb578063f1ae8856146100d4578063ff809577146100e9575b600080fd5b61007a61007536600461051f565b6100fc565b6040519081526020015b60405180910390f35b6002546100a0906001600160a01b031681565b6040516001600160a01b039091168152602001610084565b6001546100a0906001600160a01b031681565b61007a60035481565b6100dc610187565b60405161008491906105af565b61007a6100f7366004610539565b610215565b6001546040516370a0823160e01b81526001600160a01b038084166004830152600092849291169081906370a082319060240160206040518083038186803b15801561014757600080fd5b505afa15801561015b573d6000803e3d6000fd5b505050506040513d601f19601f8201168201806040525081019061017f9190610574565b949350505050565b6000805461019490610659565b80601f01602080910402602001604051908101604052809291908181526020018280546101c090610659565b801561020d5780601f106101e25761010080835404028352916020019161020d565b820191906000526020600020905b8154815290600101906020018083116101f057829003601f168201915b505050505081565b6001546040516370a0823160e01b81526001600160a01b0380861660048301526000928492879290911690849082906370a082319060240160206040518083038186803b15801561026557600080fd5b505afa158015610279573d6000803e3d6000fd5b505050506040513d601f19601f8201168201806040525081019061029d9190610574565b6040516370a0823160e01b81526001600160a01b0389811660048301529192506000918516906370a082319060240160206040518083038186803b1580156102e457600080fd5b505afa1580156102f8573d6000803e3d6000fd5b505050506040513d601f19601f8201168201806040525081019061031c9190610574565b90506103ac6103a5856001600160a01b03166318160ddd6040518163ffffffff1660e01b815260040160206040518083038186803b15801561035d57600080fd5b505afa158015610371573d6000803e3d6000fd5b505050506040513d601f19601f820116820180604052508101906103959190610574565b61039f85856104d8565b906104eb565b87906104f7565b6002546040516393f1a40b60e01b8152600481018890526001600160a01b038b8116602483015292985091169060009082906393f1a40b90604401604080518083038186803b1580156103fe57600080fd5b505afa158015610412573d6000803e3d6000fd5b505050506040513d601f19601f82011682018060405250810190610436919061058c565b50905080156104ca576104c76104c0876001600160a01b03166318160ddd6040518163ffffffff1660e01b815260040160206040518083038186803b15801561047e57600080fd5b505afa158015610492573d6000803e3d6000fd5b505050506040513d601f19601f820116820180604052508101906104b69190610574565b61039f87856104d8565b89906104f7565b97505b505050505050509392505050565b60006104e4828461063a565b9392505050565b60006104e4828461061a565b60006104e48284610602565b80356001600160a01b038116811461051a57600080fd5b919050565b600060208284031215610530578081fd5b6104e482610503565b60008060006060848603121561054d578182fd5b61055684610503565b925061056460208501610503565b9150604084013590509250925092565b600060208284031215610585578081fd5b5051919050565b6000806040838503121561059e578182fd5b505080516020909101519092909150565b6000602080835283518082850152825b818110156105db578581018301518582016040015282016105bf565b818111156105ec5783604083870101525b50601f01601f1916929092016040019392505050565b6000821982111561061557610615610694565b500190565b60008261063557634e487b7160e01b81526012600452602481fd5b500490565b600081600019048311821515161561065457610654610694565b500290565b600181811c9082168061066d57607f821691505b6020821081141561068e57634e487b7160e01b600052602260045260246000fd5b50919050565b634e487b7160e01b600052601160045260246000fdfea2646970667358221220c04477bb13c1bdb485be1a231cd11b60d8b37eede25fb457de3652598bb653ce64736f6c6343000803003349434849506f77616820496e74657270657274657220666f722069636869204c5020746f6b656e7320696e2049434849204661726d",
  "devdoc": {
    "kind": "dev",
    "methods": {},
    "version": 1
  },
  "userdoc": {
    "kind": "user",
    "methods": {},
    "version": 1
  },
  "storageLayout": {
    "storage": [
      {
        "astId": 1690,
        "contract": "contracts/interperters/ichiFarmPowah.sol:ICHIFarmPowah",
        "label": "DESCRIPTION",
        "offset": 0,
        "slot": "0",
        "type": "t_string_storage"
      },
      {
        "astId": 1693,
        "contract": "contracts/interperters/ichiFarmPowah.sol:ICHIFarmPowah",
        "label": "ICHIaddress",
        "offset": 0,
        "slot": "1",
        "type": "t_address"
      },
      {
        "astId": 1696,
        "contract": "contracts/interperters/ichiFarmPowah.sol:ICHIFarmPowah",
        "label": "ICHIFarmAddress",
        "offset": 0,
        "slot": "2",
        "type": "t_address"
      },
      {
        "astId": 1699,
        "contract": "contracts/interperters/ichiFarmPowah.sol:ICHIFarmPowah",
        "label": "SUSHIFarmPoolID",
        "offset": 0,
        "slot": "3",
        "type": "t_uint256"
      }
    ],
    "types": {
      "t_address": {
        "encoding": "inplace",
        "label": "address",
        "numberOfBytes": "20"
      },
      "t_string_storage": {
        "encoding": "bytes",
        "label": "string",
        "numberOfBytes": "32"
      },
      "t_uint256": {
        "encoding": "inplace",
        "label": "uint256",
        "numberOfBytes": "32"
      }
    }
  }
}