{
  "address": "0x74a53159a3e73dF5EE024a4AF9bf1CFA2F4C1cC1",
  "abi": [
    {
      "inputs": [],
      "name": "DESCRIPTION",
      "outputs": [
        {
          "internalType": "string",
          "name": "",
          "type": "string"
        }
      ],
      "stateMutability": "view",
      "type": "function"
    },
    {
      "inputs": [],
      "name": "ICHIaddress",
      "outputs": [
        {
          "internalType": "address",
          "name": "",
          "type": "address"
        }
      ],
      "stateMutability": "view",
      "type": "function"
    },
    {
      "inputs": [
        {
          "internalType": "address",
          "name": "instance",
          "type": "address"
        },
        {
          "internalType": "address",
          "name": "user",
          "type": "address"
        }
      ],
      "name": "getPowah",
      "outputs": [
        {
          "internalType": "uint256",
          "name": "ichi",
          "type": "uint256"
        }
      ],
      "stateMutability": "view",
      "type": "function"
    },
    {
      "inputs": [
        {
          "internalType": "address",
          "name": "instance",
          "type": "address"
        }
      ],
      "name": "getSupply",
      "outputs": [
        {
          "internalType": "uint256",
          "name": "ichi",
          "type": "uint256"
        }
      ],
      "stateMutability": "view",
      "type": "function"
    },
    {
      "inputs": [],
      "name": "oneINCHFarmICHIaddress",
      "outputs": [
        {
          "internalType": "address",
          "name": "",
          "type": "address"
        }
      ],
      "stateMutability": "view",
      "type": "function"
    }
  ],
  "transactionHash": "0xcab16059fccc4e5bdbc42b48bf87d072057a61d7637448954be37ead1789b591",
  "args": [],
  "solcInputHash": "3445a493da365c84996728acedccd0db",
  "bytecode": "0x60e0604052602e6080818152906108f660a039805161002691600091602090910190610081565b50600180546001600160a01b031990811673903bef1736cddf2a537176cf3c64579c3867a8811790915560028054909116737ded1b278d244f707214759c45c1540834890e9517905534801561007b57600080fd5b50610155565b82805461008d9061011a565b90600052602060002090601f0160209004810192826100af57600085556100f5565b82601f106100c857805160ff19168380011785556100f5565b828001600101855582156100f5579182015b828111156100f55782518255916020019190600101906100da565b50610101929150610105565b5090565b5b808211156101015760008155600101610106565b600181811c9082168061012e57607f821691505b6020821081141561014f57634e487b7160e01b600052602260045260246000fd5b50919050565b610792806101646000396000f3fe608060405234801561001057600080fd5b50600436106100575760003560e01c80631fd433aa1461005c578063445387a114610082578063719d5df7146100ad5780639e387e80146100c0578063f1ae8856146100d3575b600080fd5b61006f61006a3660046105fd565b6100e8565b6040519081526020015b60405180910390f35b600254610095906001600160a01b031681565b6040516001600160a01b039091168152602001610079565b61006f6100bb366004610617565b610173565b600154610095906001600160a01b031681565b6100db610528565b6040516100799190610661565b6001546040516370a0823160e01b81526001600160a01b038084166004830152600092849291169081906370a082319060240160206040518083038186803b15801561013357600080fd5b505afa158015610147573d6000803e3d6000fd5b505050506040513d601f19601f8201168201806040525081019061016b9190610649565b949350505050565b6001546040516370a0823160e01b81526001600160a01b0380851660048301526000928592911690839082906370a082319060240160206040518083038186803b1580156101c057600080fd5b505afa1580156101d4573d6000803e3d6000fd5b505050506040513d601f19601f820116820180604052508101906101f89190610649565b6040516370a0823160e01b81526001600160a01b0387811660048301529192506000918516906370a082319060240160206040518083038186803b15801561023f57600080fd5b505afa158015610253573d6000803e3d6000fd5b505050506040513d601f19601f820116820180604052508101906102779190610649565b9050610307610300856001600160a01b03166318160ddd6040518163ffffffff1660e01b815260040160206040518083038186803b1580156102b857600080fd5b505afa1580156102cc573d6000803e3d6000fd5b505050506040513d601f19601f820116820180604052508101906102f09190610649565b6102fa85856105b6565b906105c9565b86906105d5565b6002546040516370a0823160e01b81526001600160a01b03898116600483015292975091169060009082906370a082319060240160206040518083038186803b15801561035357600080fd5b505afa158015610367573d6000803e3d6000fd5b505050506040513d601f19601f8201168201806040525081019061038b9190610649565b9050801561051c57600061048e836001600160a01b03166318160ddd6040518163ffffffff1660e01b815260040160206040518083038186803b1580156103d157600080fd5b505afa1580156103e5573d6000803e3d6000fd5b505050506040513d601f19601f820116820180604052508101906104099190610649565b6040516370a0823160e01b81526001600160a01b0386811660048301526102fa9186918c16906370a082319060240160206040518083038186803b15801561045057600080fd5b505afa158015610464573d6000803e3d6000fd5b505050506040513d601f19601f820116820180604052508101906104889190610649565b906105b6565b9050610518610511886001600160a01b03166318160ddd6040518163ffffffff1660e01b815260040160206040518083038186803b1580156104cf57600080fd5b505afa1580156104e3573d6000803e3d6000fd5b505050506040513d601f19601f820116820180604052508101906105079190610649565b6102fa88856105b6565b89906105d5565b9750505b50505050505092915050565b600080546105359061070b565b80601f01602080910402602001604051908101604052809291908181526020018280546105619061070b565b80156105ae5780601f10610583576101008083540402835291602001916105ae565b820191906000526020600020905b81548152906001019060200180831161059157829003601f168201915b505050505081565b60006105c282846106ec565b9392505050565b60006105c282846106cc565b60006105c282846106b4565b80356001600160a01b03811681146105f857600080fd5b919050565b60006020828403121561060e578081fd5b6105c2826105e1565b60008060408385031215610629578081fd5b610632836105e1565b9150610640602084016105e1565b90509250929050565b60006020828403121561065a578081fd5b5051919050565b6000602080835283518082850152825b8181101561068d57858101830151858201604001528201610671565b8181111561069e5783604083870101525b50601f01601f1916929092016040019392505050565b600082198211156106c7576106c7610746565b500190565b6000826106e757634e487b7160e01b81526012600452602481fd5b500490565b600081600019048311821515161561070657610706610746565b500290565b600181811c9082168061071f57607f821691505b6020821081141561074057634e487b7160e01b600052602260045260246000fd5b50919050565b634e487b7160e01b600052601160045260246000fdfea264697066735822122049675fd4e0f90f665546cf3b2ed4aacd57ae2aff38859998190adee25b5fbcc664736f6c6343000803003349434849506f77616820496e74657270657274657220666f722031696e63682069636869204c5020746f6b656e73",
  "devdoc": {
    "kind": "dev",
    "methods": {},
    "version": 1
  },
  "userdoc": {
    "kind": "user",
    "methods": {},
    "version": 1
  },
  "storageLayout": {
    "storage": [
      {
        "astId": 1266,
        "contract": "contracts/interperters/1INCHPowah.sol:oneINCHPowah",
        "label": "DESCRIPTION",
        "offset": 0,
        "slot": "0",
        "type": "t_string_storage"
      },
      {
        "astId": 1269,
        "contract": "contracts/interperters/1INCHPowah.sol:oneINCHPowah",
        "label": "ICHIaddress",
        "offset": 0,
        "slot": "1",
        "type": "t_address"
      },
      {
        "astId": 1272,
        "contract": "contracts/interperters/1INCHPowah.sol:oneINCHPowah",
        "label": "oneINCHFarmICHIaddress",
        "offset": 0,
        "slot": "2",
        "type": "t_address"
      }
    ],
    "types": {
      "t_address": {
        "encoding": "inplace",
        "label": "address",
        "numberOfBytes": "20"
      },
      "t_string_storage": {
        "encoding": "bytes",
        "label": "string",
        "numberOfBytes": "32"
      }
    }
  }
}