{
  "address": "0x822b94df15Fe9c60B35796Be7B1e5E15eE225dd3",
  "abi": [
    {
      "inputs": [],
      "name": "DESCRIPTION",
      "outputs": [
        {
          "internalType": "string",
          "name": "",
          "type": "string"
        }
      ],
      "stateMutability": "view",
      "type": "function"
    },
    {
      "inputs": [],
      "name": "ICHIFarmAddress",
      "outputs": [
        {
          "internalType": "address",
          "name": "",
          "type": "address"
        }
      ],
      "stateMutability": "view",
      "type": "function"
    },
    {
      "inputs": [],
      "name": "ICHIaddress",
      "outputs": [
        {
          "internalType": "address",
          "name": "",
          "type": "address"
        }
      ],
      "stateMutability": "view",
      "type": "function"
    },
    {
      "inputs": [],
      "name": "SUSHIFarmAddress",
      "outputs": [
        {
          "internalType": "address",
          "name": "",
          "type": "address"
        }
      ],
      "stateMutability": "view",
      "type": "function"
    },
    {
      "inputs": [],
      "name": "SUSHIFarmPoolID",
      "outputs": [
        {
          "internalType": "uint256",
          "name": "",
          "type": "uint256"
        }
      ],
      "stateMutability": "view",
      "type": "function"
    },
    {
      "inputs": [
        {
          "internalType": "address",
          "name": "instance",
          "type": "address"
        },
        {
          "internalType": "address",
          "name": "user",
          "type": "address"
        },
        {
          "internalType": "bytes32",
          "name": "params",
          "type": "bytes32"
        }
      ],
      "name": "getPowah",
      "outputs": [
        {
          "internalType": "uint256",
          "name": "ichi",
          "type": "uint256"
        }
      ],
      "stateMutability": "view",
      "type": "function"
    },
    {
      "inputs": [
        {
          "internalType": "address",
          "name": "instance",
          "type": "address"
        }
      ],
      "name": "getSupply",
      "outputs": [
        {
          "internalType": "uint256",
          "name": "ichi",
          "type": "uint256"
        }
      ],
      "stateMutability": "view",
      "type": "function"
    }
  ],
  "transactionHash": "0x9af362286c4b0e7e1d108eb00248a9d9d4d0369e63e73267d1c93012cec065d5",
  "args": [],
  "solcInputHash": "86c45c6cc791b56aea7f70a0a842f431",
  "bytecode": "0x60e0604052602e6080818152906109b460a0398051610026916000916020909101906100a4565b50600180546001600160a01b031990811673903bef1736cddf2a537176cf3c64579c3867a8811790915560028054821673275dfe03bc036257cd0a713ee819dbd4529739c81790556003805490911673c2edad668740f1aa35e4d8f227fb8e17dca888cd179055604f60045534801561009e57600080fd5b50610178565b8280546100b09061013d565b90600052602060002090601f0160209004810192826100d25760008555610118565b82601f106100eb57805160ff1916838001178555610118565b82800160010185558215610118579182015b828111156101185782518255916020019190600101906100fd565b50610124929150610128565b5090565b5b808211156101245760008155600101610129565b600181811c9082168061015157607f821691505b6020821081141561017257634e487b7160e01b600052602260045260246000fd5b50919050565b61082d806101876000396000f3fe608060405234801561001057600080fd5b506004361061007d5760003560e01c8063b604b1ac1161005b578063b604b1ac146100e6578063e67140a7146100f9578063f1ae885614610102578063ff809577146101175761007d565b80631fd433aa14610082578063324c6947146100a85780639e387e80146100d3575b600080fd5b61009561009036600461066c565b61012a565b6040519081526020015b60405180910390f35b6002546100bb906001600160a01b031681565b6040516001600160a01b03909116815260200161009f565b6001546100bb906001600160a01b031681565b6003546100bb906001600160a01b031681565b61009560045481565b61010a6101b5565b60405161009f91906106fc565b610095610125366004610686565b610243565b6001546040516370a0823160e01b81526001600160a01b038084166004830152600092849291169081906370a082319060240160206040518083038186803b15801561017557600080fd5b505afa158015610189573d6000803e3d6000fd5b505050506040513d601f19601f820116820180604052508101906101ad91906106c1565b949350505050565b600080546101c2906107a6565b80601f01602080910402602001604051908101604052809291908181526020018280546101ee906107a6565b801561023b5780601f106102105761010080835404028352916020019161023b565b820191906000526020600020905b81548152906001019060200180831161021e57829003601f168201915b505050505081565b6001546040516370a0823160e01b81526001600160a01b0380861660048301526000928492879290911690849082906370a082319060240160206040518083038186803b15801561029357600080fd5b505afa1580156102a7573d6000803e3d6000fd5b505050506040513d601f19601f820116820180604052508101906102cb91906106c1565b6040516370a0823160e01b81526001600160a01b0389811660048301529192506000918516906370a082319060240160206040518083038186803b15801561031257600080fd5b505afa158015610326573d6000803e3d6000fd5b505050506040513d601f19601f8201168201806040525081019061034a91906106c1565b90506103da6103d3856001600160a01b03166318160ddd6040518163ffffffff1660e01b815260040160206040518083038186803b15801561038b57600080fd5b505afa15801561039f573d6000803e3d6000fd5b505050506040513d601f19601f820116820180604052508101906103c391906106c1565b6103cd8585610625565b90610638565b8790610644565b6002546040516393f1a40b60e01b8152600481018890526001600160a01b038b8116602483015292985091169060009082906393f1a40b90604401604080518083038186803b15801561042c57600080fd5b505afa158015610440573d6000803e3d6000fd5b505050506040513d601f19601f8201168201806040525081019061046491906106d9565b50905080156104f8576104f56104ee876001600160a01b03166318160ddd6040518163ffffffff1660e01b815260040160206040518083038186803b1580156104ac57600080fd5b505afa1580156104c0573d6000803e3d6000fd5b505050506040513d601f19601f820116820180604052508101906104e491906106c1565b6103cd8785610625565b8990610644565b97505b600354600480546040516393f1a40b60e01b8152918201526001600160a01b038c811660248301529091169060009082906393f1a40b90604401604080518083038186803b15801561054957600080fd5b505afa15801561055d573d6000803e3d6000fd5b505050506040513d601f19601f8201168201806040525081019061058191906106d9565b50905080156106155761061261060b896001600160a01b03166318160ddd6040518163ffffffff1660e01b815260040160206040518083038186803b1580156105c957600080fd5b505afa1580156105dd573d6000803e3d6000fd5b505050506040513d601f19601f8201168201806040525081019061060191906106c1565b6103cd8985610625565b8b90610644565b99505b5050505050505050509392505050565b60006106318284610787565b9392505050565b60006106318284610767565b6000610631828461074f565b80356001600160a01b038116811461066757600080fd5b919050565b60006020828403121561067d578081fd5b61063182610650565b60008060006060848603121561069a578182fd5b6106a384610650565b92506106b160208501610650565b9150604084013590509250925092565b6000602082840312156106d2578081fd5b5051919050565b600080604083850312156106eb578182fd5b505080516020909101519092909150565b6000602080835283518082850152825b818110156107285785810183015185820160400152820161070c565b818111156107395783604083870101525b50601f01601f1916929092016040019392505050565b60008219821115610762576107626107e1565b500190565b60008261078257634e487b7160e01b81526012600452602481fd5b500490565b60008160001904831182151516156107a1576107a16107e1565b500290565b600181811c908216806107ba57607f821691505b602082108114156107db57634e487b7160e01b600052602260045260246000fd5b50919050565b634e487b7160e01b600052601160045260246000fdfea264697066735822122068cb6058608c6e281071af07bf852c2a4f50683efa3afd369fd865d8dc96b76564736f6c6343000803003349434849506f77616820496e74657270657274657220666f722073757368692069636869204c5020746f6b656e73",
  "devdoc": {
    "kind": "dev",
    "methods": {},
    "version": 1
  },
  "userdoc": {
    "kind": "user",
    "methods": {},
    "version": 1
  },
  "storageLayout": {
    "storage": [
      {
        "astId": 1885,
        "contract": "contracts/interperters/sushiPowah.sol:sushiICHIPowah",
        "label": "DESCRIPTION",
        "offset": 0,
        "slot": "0",
        "type": "t_string_storage"
      },
      {
        "astId": 1888,
        "contract": "contracts/interperters/sushiPowah.sol:sushiICHIPowah",
        "label": "ICHIaddress",
        "offset": 0,
        "slot": "1",
        "type": "t_address"
      },
      {
        "astId": 1891,
        "contract": "contracts/interperters/sushiPowah.sol:sushiICHIPowah",
        "label": "ICHIFarmAddress",
        "offset": 0,
        "slot": "2",
        "type": "t_address"
      },
      {
        "astId": 1894,
        "contract": "contracts/interperters/sushiPowah.sol:sushiICHIPowah",
        "label": "SUSHIFarmAddress",
        "offset": 0,
        "slot": "3",
        "type": "t_address"
      },
      {
        "astId": 1897,
        "contract": "contracts/interperters/sushiPowah.sol:sushiICHIPowah",
        "label": "SUSHIFarmPoolID",
        "offset": 0,
        "slot": "4",
        "type": "t_uint256"
      }
    ],
    "types": {
      "t_address": {
        "encoding": "inplace",
        "label": "address",
        "numberOfBytes": "20"
      },
      "t_string_storage": {
        "encoding": "bytes",
        "label": "string",
        "numberOfBytes": "32"
      },
      "t_uint256": {
        "encoding": "inplace",
        "label": "uint256",
        "numberOfBytes": "32"
      }
    }
  }
}