{
  "address": "0x65E1A3555f2c544F84C97A385cc1dbe69da5EE6C",
  "abi": [
    {
      "inputs": [],
      "name": "DESCRIPTION",
      "outputs": [
        {
          "internalType": "string",
          "name": "",
          "type": "string"
        }
      ],
      "stateMutability": "view",
      "type": "function"
    },
    {
      "inputs": [],
      "name": "ICHIaddress",
      "outputs": [
        {
          "internalType": "address",
          "name": "",
          "type": "address"
        }
      ],
      "stateMutability": "view",
      "type": "function"
    },
    {
      "inputs": [
        {
          "internalType": "address",
          "name": "instance",
          "type": "address"
        },
        {
          "internalType": "address",
          "name": "user",
          "type": "address"
        },
        {
          "internalType": "bytes32",
          "name": "",
          "type": "bytes32"
        }
      ],
      "name": "getPowah",
      "outputs": [
        {
          "internalType": "uint256",
          "name": "ichi",
          "type": "uint256"
        }
      ],
      "stateMutability": "view",
      "type": "function"
    },
    {
      "inputs": [
        {
          "internalType": "address",
          "name": "instance",
          "type": "address"
        }
      ],
      "name": "getSupply",
      "outputs": [
        {
          "internalType": "uint256",
          "name": "ichi",
          "type": "uint256"
        }
      ],
      "stateMutability": "view",
      "type": "function"
    }
  ],
  "transactionHash": "0x5b272ff39bcfdaae8af309e898c6fdb99de9ac85be702ce95646ab878b76dde5",
  "args": [],
  "solcInputHash": "86c45c6cc791b56aea7f70a0a842f431",
  "bytecode": "0x60e0604052602660808181529061067860a03980516100269160009160209091019061005f565b50600180546001600160a01b03191673903bef1736cddf2a537176cf3c64579c3867a88117905534801561005957600080fd5b50610133565b82805461006b906100f8565b90600052602060002090601f01602090048101928261008d57600085556100d3565b82601f106100a657805160ff19168380011785556100d3565b828001600101855582156100d3579182015b828111156100d35782518255916020019190600101906100b8565b506100df9291506100e3565b5090565b5b808211156100df57600081556001016100e4565b600181811c9082168061010c57607f821691505b6020821081141561012d57634e487b7160e01b600052602260045260246000fd5b50919050565b610536806101426000396000f3fe608060405234801561001057600080fd5b506004361061004c5760003560e01c80631fd433aa146100515780639e387e8014610077578063f1ae8856146100a2578063ff809577146100b7575b600080fd5b61006461005f3660046103ba565b6100ca565b6040519081526020015b60405180910390f35b60015461008a906001600160a01b031681565b6040516001600160a01b03909116815260200161006e565b6100aa610155565b60405161006e9190610427565b6100646100c53660046103d4565b6101e3565b6001546040516370a0823160e01b81526001600160a01b038084166004830152600092849291169081906370a082319060240160206040518083038186803b15801561011557600080fd5b505afa158015610129573d6000803e3d6000fd5b505050506040513d601f19601f8201168201806040525081019061014d919061040f565b949350505050565b60008054610162906104c5565b80601f016020809104026020016040519081016040528092919081815260200182805461018e906104c5565b80156101db5780601f106101b0576101008083540402835291602001916101db565b820191906000526020600020905b8154815290600101906020018083116101be57829003601f168201915b505050505081565b6001546040516370a0823160e01b81526001600160a01b0380861660048301526000928692911690839082906370a082319060240160206040518083038186803b15801561023057600080fd5b505afa158015610244573d6000803e3d6000fd5b505050506040513d601f19601f82011682018060405250810190610268919061040f565b6040516370a0823160e01b81526001600160a01b0388811660048301529192506000918516906370a082319060240160206040518083038186803b1580156102af57600080fd5b505afa1580156102c3573d6000803e3d6000fd5b505050506040513d601f19601f820116820180604052508101906102e7919061040f565b90506000846001600160a01b03166318160ddd6040518163ffffffff1660e01b815260040160206040518083038186803b15801561032457600080fd5b505afa158015610338573d6000803e3d6000fd5b505050506040513d601f19601f8201168201806040525081019061035c919061040f565b90506103728161036c858561037f565b90610392565b9998505050505050505050565b600061038b828461049a565b9392505050565b600061038b828461047a565b80356001600160a01b03811681146103b557600080fd5b919050565b6000602082840312156103cb578081fd5b61038b8261039e565b6000806000606084860312156103e8578182fd5b6103f18461039e565b92506103ff6020850161039e565b9150604084013590509250925092565b600060208284031215610420578081fd5b5051919050565b6000602080835283518082850152825b8181101561045357858101830151858201604001528201610437565b818111156104645783604083870101525b50601f01601f1916929092016040019392505050565b60008261049557634e487b7160e01b81526012600452602481fd5b500490565b60008160001904831182151516156104c057634e487b7160e01b81526011600452602481fd5b500290565b600181811c908216806104d957607f821691505b602082108114156104fa57634e487b7160e01b600052602260045260246000fd5b5091905056fea264697066735822122054ffcbb326685f3beaa12f8c5c4a2161f9f739501e5e3506f0b53b09b69305a364736f6c6343000803003349434849506f77616820496e74657270657274657220666f7220784943484920746f6b656e73",
  "devdoc": {
    "kind": "dev",
    "methods": {},
    "version": 1
  },
  "userdoc": {
    "kind": "user",
    "methods": {},
    "version": 1
  },
  "storageLayout": {
    "storage": [
      {
        "astId": 2103,
        "contract": "contracts/interperters/xICHIPowah.sol:xICHIPowah",
        "label": "DESCRIPTION",
        "offset": 0,
        "slot": "0",
        "type": "t_string_storage"
      },
      {
        "astId": 2106,
        "contract": "contracts/interperters/xICHIPowah.sol:xICHIPowah",
        "label": "ICHIaddress",
        "offset": 0,
        "slot": "1",
        "type": "t_address"
      }
    ],
    "types": {
      "t_address": {
        "encoding": "inplace",
        "label": "address",
        "numberOfBytes": "20"
      },
      "t_string_storage": {
        "encoding": "bytes",
        "label": "string",
        "numberOfBytes": "32"
      }
    }
  }
}