{
  "address": "0xa95A5B736e10379d0296d9D9bcb9054390943bab",
  "abi": [
    {
      "inputs": [],
      "name": "DESCRIPTION",
      "outputs": [
        {
          "internalType": "string",
          "name": "",
          "type": "string"
        }
      ],
      "stateMutability": "view",
      "type": "function"
    },
    {
      "inputs": [],
      "name": "ICHIaddress",
      "outputs": [
        {
          "internalType": "address",
          "name": "",
          "type": "address"
        }
      ],
      "stateMutability": "view",
      "type": "function"
    },
    {
      "inputs": [
        {
          "internalType": "address",
          "name": "instance",
          "type": "address"
        },
        {
          "internalType": "address",
          "name": "user",
          "type": "address"
        }
      ],
      "name": "getPowah",
      "outputs": [
        {
          "internalType": "uint256",
          "name": "ichi",
          "type": "uint256"
        }
      ],
      "stateMutability": "view",
      "type": "function"
    },
    {
      "inputs": [
        {
          "internalType": "address",
          "name": "instance",
          "type": "address"
        }
      ],
      "name": "getSupply",
      "outputs": [
        {
          "internalType": "uint256",
          "name": "ichi",
          "type": "uint256"
        }
      ],
      "stateMutability": "view",
      "type": "function"
    }
  ],
  "transactionHash": "0x3eedbef1f08d09a4709d6a4b25b49c7578a66984c80c55c7ce360728e28f4747",
  "args": [],
  "solcInputHash": "97d695bc4dc184c6218e203be23e1532",
  "bytecode": "0x60e0604052602660808181529061066e60a03980516100269160009160209091019061005f565b50600180546001600160a01b03191673903bef1736cddf2a537176cf3c64579c3867a88117905534801561005957600080fd5b50610133565b82805461006b906100f8565b90600052602060002090601f01602090048101928261008d57600085556100d3565b82601f106100a657805160ff19168380011785556100d3565b828001600101855582156100d3579182015b828111156100d35782518255916020019190600101906100b8565b506100df9291506100e3565b5090565b5b808211156100df57600081556001016100e4565b600181811c9082168061010c57607f821691505b6020821081141561012d57634e487b7160e01b600052602260045260246000fd5b50919050565b61052c806101426000396000f3fe608060405234801561001057600080fd5b506004361061004c5760003560e01c80631fd433aa14610051578063719d5df7146100775780639e387e801461008a578063f1ae8856146100b5575b600080fd5b61006461005f3660046103b9565b6100ca565b6040519081526020015b60405180910390f35b6100646100853660046103d3565b610155565b60015461009d906001600160a01b031681565b6040516001600160a01b03909116815260200161006e565b6100bd6102f0565b60405161006e919061041d565b6001546040516370a0823160e01b81526001600160a01b038084166004830152600092849291169081906370a082319060240160206040518083038186803b15801561011557600080fd5b505afa158015610129573d6000803e3d6000fd5b505050506040513d601f19601f8201168201806040525081019061014d9190610405565b949350505050565b6001546040516370a0823160e01b81526001600160a01b0380851660048301526000928592911690839082906370a082319060240160206040518083038186803b1580156101a257600080fd5b505afa1580156101b6573d6000803e3d6000fd5b505050506040513d601f19601f820116820180604052508101906101da9190610405565b6040516370a0823160e01b81526001600160a01b0387811660048301529192506000918516906370a082319060240160206040518083038186803b15801561022157600080fd5b505afa158015610235573d6000803e3d6000fd5b505050506040513d601f19601f820116820180604052508101906102599190610405565b90506000846001600160a01b03166318160ddd6040518163ffffffff1660e01b815260040160206040518083038186803b15801561029657600080fd5b505afa1580156102aa573d6000803e3d6000fd5b505050506040513d601f19601f820116820180604052508101906102ce9190610405565b90506102e4816102de858561037e565b90610391565b98975050505050505050565b600080546102fd906104bb565b80601f0160208091040260200160405190810160405280929190818152602001828054610329906104bb565b80156103765780601f1061034b57610100808354040283529160200191610376565b820191906000526020600020905b81548152906001019060200180831161035957829003601f168201915b505050505081565b600061038a8284610490565b9392505050565b600061038a8284610470565b80356001600160a01b03811681146103b457600080fd5b919050565b6000602082840312156103ca578081fd5b61038a8261039d565b600080604083850312156103e5578081fd5b6103ee8361039d565b91506103fc6020840161039d565b90509250929050565b600060208284031215610416578081fd5b5051919050565b6000602080835283518082850152825b818110156104495785810183015185820160400152820161042d565b8181111561045a5783604083870101525b50601f01601f1916929092016040019392505050565b60008261048b57634e487b7160e01b81526012600452602481fd5b500490565b60008160001904831182151516156104b657634e487b7160e01b81526011600452602481fd5b500290565b600181811c908216806104cf57607f821691505b602082108114156104f057634e487b7160e01b600052602260045260246000fd5b5091905056fea264697066735822122009cab7e63a436a2a035fbc4008e7a0aea99a97f6514b2970734873c5114539f664736f6c6343000803003349434849506f77616820496e74657270657274657220666f7220784943484920746f6b656e73",
  "devdoc": {
    "kind": "dev",
    "methods": {},
    "version": 1
  },
  "userdoc": {
    "kind": "user",
    "methods": {},
    "version": 1
  },
  "storageLayout": {
    "storage": [
      {
        "astId": 1266,
        "contract": "contracts/interperters/xICHIPowah.sol:xICHIPowah",
        "label": "DESCRIPTION",
        "offset": 0,
        "slot": "0",
        "type": "t_string_storage"
      },
      {
        "astId": 1269,
        "contract": "contracts/interperters/xICHIPowah.sol:xICHIPowah",
        "label": "ICHIaddress",
        "offset": 0,
        "slot": "1",
        "type": "t_address"
      }
    ],
    "types": {
      "t_address": {
        "encoding": "inplace",
        "label": "address",
        "numberOfBytes": "20"
      },
      "t_string_storage": {
        "encoding": "bytes",
        "label": "string",
        "numberOfBytes": "32"
      }
    }
  }
}